:020000040800F2
:1000000008040020450100081F0400086B020008D6
:100010001D0400088D010008E5090008000000002B
:10002000000000000000000000000000CD040008F7
:1000300097010008000000009904000891050008DD
:100040005F0100085F0100085F0100085F01000810
:100050005F0100085F0100085F0100085F01000800
:100060005F0100085F0100085F0100085F010008F0
:100070005F0100085F0100085F0100085F010008E0
:100080005F0100085F0100085F0100085F010008D0
:100090005F0100085F0100085F0100085F010008C0
:1000A0005F0100085F0100085F0100085F010008B0
:1000B0005F0100085F0100085F0100085F010008A0
:1000C0005F0100085F0100085F0100085F01000890
:1000D0005F0100085F0100085F0100085F01000880
:1000E0005F0100085F0100085F0100085F01000870
:1000F0005F0100085F0100085F0100085F01000860
:100100005F0100085F0100085F0100085F0100084F
:100110005F0100085F0100081D0600085F0100087C
:100120005F0100085F0100085F0100085F0100082F
:10013000DFF80CD000F018F800480047390A000832
:10014000080400200648804706480047FEE7FEE70F
:10015000FEE7FEE7FEE7FEE7FEE7FEE7FEE7FEE777
:100160009505000831010008064C074D06E0E068DF
:1001700040F0010394E8070098471034AC42F6D3EE
:10018000FFF7DAFFB40A0008D40A0008FEE76FF0B0
:10019000040000F0F1B9704742F2283148434FF0B3
:1001A000E021486100238B61086940F0010008618B
:1001B0000869C20701D0C003FAD5086920F0010020
:1001C00008618B617047F0B5CC78002204F00F0312
:1001D000E40601D58C7823430C784FF00F0C14F013
:1001E000FF0F4FF0010E1BD005680E880EFA02F4C7
:1001F0002640A64210D196000CFA06F725EA07071A
:1002000003FA06F5CE783D43282E02D0482E02D0C0
:1002100002E0446100E00461521C082AE5D3056055
:100220000A88FF2A1CD94468002202F108060EFA47
:1002300006F50E882E40AE420ED196000CFA06F757
:10024000BC4303FA06F7CE783C43282E00D1456123
:10025000CE78482E00D10561521C082AE5D34460AF
:10026000F0BD4161704701617047FEE741060748F4
:10027000826942F0010282610548426822F0E06230
:10028000426042680A43426070470000001002402A
:1002900000000140F8B50121202000F00BF90121F8
:1002A000102000F007F90420ADF8000010208DF8B0
:1002B000030003200B4D8DF8020069462846FFF726
:1002C00082FF094EAC14ADF8004069463046FFF796
:1002D0007AFF04212846FFF7C6FF21463046FFF784
:1002E000C2FFF8BD001401400010014070B5044683
:1002F00088B00121112000F0DDF84FF47070ADF8E6
:10030000000018208DF80300414E03258DF802509F
:1003100069463046FFF757FF0121182000F0CAF860
:10032000ADF8005010208DF803008DF8025069469A
:100330003046FFF748FF0C20ADF800006946304614
:10034000FFF741FF3020ADF8000069463046FFF767
:100350003AFFA803ADF8000069462E48FFF733FFC7
:10036000002C52D0142C00D914240121480300F091
:10037000A1F840F2CF70ADF818002420B0FBF4F0E3
:10038000401EADF814000024234DADF81A40ADF81E
:10039000164005A9284600F0D7FA6020ADF8040001
:1003A0000120ADF80600ADF80A40ADF80C4001A9F7
:1003B000284600F0B7F90821284600F0F3F901A912
:1003C000284600F0F5F90821284600F031FA01A985
:1003D000284600F037FA0821284600F071FA01A9F2
:1003E000284600F073FA0821284600F0A1FA0121FE
:1003F000284600F05DF90121284600F069F9012145
:10040000284600F06FF908B070BD0124ADE7000088
:1004100000100140000C014000340140FEE770472D
:1004200030B50F23C27801780125F2B1144A126861
:1004300001F1E02102F4E062C2F5E062120AC2F1C9
:100440000404D3404278A24084781C401443220123
:1004500081F80024007800F01F018D4040098000E1
:1004600000F1E020C0F8005130BD01F01F008540D0
:100470004809800000F1E020C0F8805130BD000044
:100480000CED00E002490843024908607047000093
:100490000000FA050CED00E070470000044A002956
:1004A000D16901D0014300E08143D1617047000070
:1004B00000100240044A0029916901D0014300E084
:1004C00081439161704700000010024070470000B6
:1004D0000CB50022264800920192016841F4803157
:1004E00001604FF4A063016801F4003101910099AB
:1004F000491C0091019911B900999942F3D1016801
:10050000890333D5012101911A490A6842F010028A
:100510000A600A6822F003020A600A6842F00202D6
:100520000A604168416041684160416841F480610E
:100530004160416821F47C114160416841F4E81157
:100540004160016841F08071016001688901FCD55A
:10055000416821F003014160416841F002014160BE
:100560004168C1F381010229FAD10CBD01920CBD91
:1005700000100240002002404FF0E02104280869EA
:1005800003D020F004000861704740F00400FAE74F
:10059000704700000F4810B5016841F0010101608B
:1005A00041680D4A1140416001680C4A11400160E8
:1005B000016821F480210160416821F4FE0141605D
:1005C0004FF41F018160FFF783FF05494FF0006082
:1005D000086010BD001002400000FFF8FFFFF6FEAB
:1005E00008ED00E00448017819B1002101700120F4
:1005F00070470020704700000000002070B5064CD6
:1006000005460021204600F09DF929462046BDE818
:10061000704000F05DB800000010004010B5084CBC
:100620000121204600F069F8002808D00549012082
:10063000087001462046BDE8104000F046B810BDE5
:1006400000100040000000201FB5044601211020CA
:10065000FFF724FF4720641EADF80000ADF804400A
:100660000020124CADF80200ADF8060069462046A5
:1006700000F06AF90121204600F024F80122114619
:10068000204600F046F80121204600F021F83620EF
:100690008DF80C0002208DF80D0001208DF80E0061
:1006A0008DF80F0003A8FFF7BBFE1FBD0010004030
:1006B0000029018802D041F0800101E021F0800191
:1006C00001807047C94301827047C9430182704766
:1006D0000029018802D041F0010101E021F001016F
:1006E00001807047002930F8441F02D041F40041D6
:1006F00001E0C1F30E010180704702460020138A19
:1007000092890B4202EA010202D0002A00D00120A5
:100710007047002A828901D00A4300E08A4382811F
:100720007047000030B5028C22F001020284028C76
:100730008388048B22F0020224F073050C882C437A
:100740000D8915434A882A43114DA8420BD0114DFB
:10075000A84208D0104DA84205D0104DA84202D0A2
:100760000F4DA8420DD122F008054A8923F44073A9
:100770002A4322F004058A882A438D891D43CB89A8
:100780002B4383800483C9888186028430BD0000A6
:10079000002C014000340140004001400044014071
:1007A00000480140028B22F008020A43028370478E
:1007B00070B5028C22F010020284028C8388048BB4
:1007C0000D8824F4E6464FF6FF7404EA0525354308
:1007D0000E8922F0200204EA061616434A8804EA2B
:1007E00002123243104EB04202D0104EB04215D128
:1007F00022F080064A8923F4406304EA021232435D
:1008000022F040068A8804EA021232438E8904EA02
:1008100086061E43CB8904EA830333438380058322
:10082000C9880187028470BD002C0140003401405A
:10083000028B4FF6FF7322F4006203EA0121114399
:100840000183704770B5028C22F480720284028C9E
:100850008388848B0D8824F0730425430E894FF61A
:10086000FF7422F4007204EA062616434A8804EA5A
:1008700002223243104EB04202D0104EB04215D187
:1008800022F400664A8923F4405304EA02223243E8
:1008900022F480668A8804EA022232438E8904EABE
:1008A00006161E43CB8904EA0313334383808583F2
:1008B000C9888187028470BD002C0140003401404A
:1008C000828B22F008020A438283704770B5028C43
:1008D00022F480520284058C8288838B0C8823F456
:1008E000E6464FF6FF7303EA0424344325F400562A
:1008F0000D8903EA053535434E8803EA06362E4353
:10090000094DA84202D0094DA84205D122F48045E4
:100910008A8903EA82122A4382808483C988A0F8E4
:100920004010068470BD0000002C014000340140DE
:10093000828B4FF6FF7322F4006203EA0121114318
:10094000818370478184704730B502881B4C1C4DF1
:10095000A0420DD0A8420BD0B0F1804F08D0194B67
:10096000984205D0184B984202D0184B984203D1B8
:1009700022F070034A881A43154B984206D0154B53
:10098000984203D022F44073CA881A4302808A88AE
:1009900082850A880285A0420AD0A84208D00E4A61
:1009A000904205D00D4A904202D00D4A904201D1AA
:1009B000097A01860121818230BD0000002C0140AE
:1009C000003401400004004000080040000C0040DA
:1009D000001000400014004000400140004401406D
:1009E00000480140FEE702E008C8121F08C1002AC3
:1009F000FAD170477047002001E001C1121F002AA0
:100A0000FBD1704770B54FF4FA76B0FBF6F1CCB27B
:100A1000B0FBF6F106FB110504E03046FFF7BCFB26
:100A2000641EE4B2002CF8D1002D04D02846BDE8A5
:100A30007040FFF7B1BB70BD4FF4A060FFF722FD1F
:100A40000A20FFF753FCFFF7A2FB0220FFF70EFC82
:100A50000120FFF70BFCFFF71DFC144D4FF48054F1
:100A600021462846FFF7FDFB114E04213046FFF7D3
:100A7000F8FB6420FFF7C6FF21462846FFF7F3FB8B
:100A800004213046FFF7EFFB4FF49670FFF7BAFFF3
:100A900042F21070FFF7D8FD0120FFF7AFFD0421EF
:100AA0003046FFF7DEFBFFF79DFDFCE7001001403D
:100AB00000140140D40A00080000002004000000D7
:100AC000E6090008D80A0008040000200404000019
:080AD000F60900080000000017
:0400000508000131BD
:00000001FF
