:020000040800F2
:10000000080400204501000845070008C504000851
:10001000E106000873030008E10D0008000000007D
:10002000000000000000000000000000F5070008CC
:100030007D03000800000000C107000899090008BE
:100040005F0100085F0100085F0100085F01000810
:100050005F0100085F0100085F0100085F01000800
:100060005F0100085F0100085F0100085F010008F0
:100070005F0100085F0100085F0100085F010008E0
:100080005F0100085F0100085F0100085F010008D0
:100090005F0100085F0100085F0100085F010008C0
:1000A0005F0100085F0100085F0100085F010008B0
:1000B0005F0100085F0100085F0100085F010008A0
:1000C0005F0100085F0100085F0100085F01000890
:1000D0005F0100085F0100085F0100085F01000880
:1000E0005F0100085F0100085F0100085F01000870
:1000F0005F0100085F0100085F0100085F01000860
:100100005F0100085F0100085F0100085F0100084F
:100110005F0100085F0100080D0A00085F01000888
:100120005F0100085F0100085F0100085F0100082F
:10013000DFF80CD000F0F2F800480047350E000858
:10014000080400200648804706480047FEE7FEE70F
:10015000FEE7FEE7FEE7FEE7FEE7FEE7FEE7FEE777
:100160009D09000831010008F0B480EA0102D40FB3
:100170004200B2EB410F02D20246084611464A0045
:1001800042D0C30DDDB2C1F3C752AD1A202D35DA0E
:10019000C1F3160141F4000204B15242C5F1200638
:1001A00002FA06F12A411044B3EBD05F23D0C4B168
:1001B000012DA0EBC35009DCF0BC4FF0004202EA75
:1001C000C352DBB200F5000000F07AB8400000F145
:1001D000807000EBC350A0F1807040EAD1704900FC
:1001E00009E0490841EAC071A0EBC35000F50000E6
:1001F000400800EBC350F0BC00F059B86142012246
:1002000002EB4101001BF6E7F0BC704781F00041B2
:10021000AAE780F00040A7E780EA010210B502F0EB
:100220000043400022D04A001FD0010E01EB1261B2
:10023000C0F35600C2F3560240F4000042F400023C
:10024000A0FB022000047F39140400D0401C50EAB7
:10025000124001D44000491EC2B20C0604EBD0107B
:10026000401C4008802A02D003E0002010BD20F08E
:100270000100002900DA0020184310BD9623002257
:10028000114600F01DB820F00040C10DC0F316006B
:1002900040F400007F2901DA00207047962903DC32
:1002A000C1F19601C84070479639884070470029CF
:1002B000A8BF7047401C490008BF20F001007047EC
:1002C00010B4B0FA80FC00FA0CF050EA010404BF4C
:1002D00010BC704749B1CCF1200421FA04F411FAA2
:1002E0000CF118BF012121430843A3EB0C01CB1DE6
:1002F0004FEA00614FEA102042BF002010BC704757
:1003000000EBC35010440029A4BF10BC7047401C30
:10031000490008BF20F0010010BC7047064C074D93
:1003200006E0E06840F0010394E8070098471034C5
:10033000AC42F6D3FFF700FFBC0E0008DC0E00084D
:1003400010B54FF41674204600F056FA204600F01F
:100350006FFA00F0CDF80028FBD000F0D7F80028A5
:10036000F7D0204600F080FA2046BDE8104000F0AB
:1003700097BAFEE76FF0040000F002BB704742F24C
:10038000283148434FF0E021486100238B61086920
:1003900040F0010008610869C20701D0C003FAD526
:1003A000086920F0010008618B61704710B544F6C0
:1003B000206000F025FD4FF41674204600F054FA3A
:1003C0002046BDE8104000F06BBA10B5002000F0E8
:1003D00013FA002000F02CFA41F2883000F010FDF2
:1003E0004FF47A7000F07EF9BDE8104044F62060CA
:1003F00000F006BDF0B5CC78002204F00F03E4064F
:1004000001D58C7823430C784FF00F0C14F0FF0FBC
:100410004FF0010E1BD005680E880EFA02F426403C
:10042000A64210D196000CFA06F725EA070703FA50
:1004300006F5CE783D43282E02D0482E02D002E0A9
:10044000446100E00461521C082AE5D305600A8873
:10045000FF2A1CD94468002202F108060EFA06F5AC
:100460000E882E40AE420ED196000CFA06F7BC4321
:1004700003FA06F7CE783C43282E00D14561CE78AA
:10048000482E00D10561521C082AE5D34460F0BD16
:100490000246002092680A4200D001207047416164
:1004A00070470161704710B500F03EF80028FBD09E
:1004B00000F046F80028F7D0BDE8104042F2107076
:1004C00000F09EBCFEE7000041060748826942F04A
:1004D000010282610548426822F0E062426042689F
:1004E0000A434260704700000010024000000140D3
:1004F00010B54FF400710448FFF7CAFF08B100209F
:1005000010BD012010BD00000010014010B54FF4D7
:1005100080710448FFF7BCFF08B1002010BD012026
:1005200010BD00000010014010B580210348FFF706
:10053000AFFF08B1002010BD012010BD0010014028
:1005400010B540210348FFF7A3FF08B1002010BDFC
:10055000012010BD00100140F8B50121202000F05D
:100560003DF90121102000F039F90420ADF8000018
:1005700010208DF8030003200B4D8DF80200694612
:100580002846FFF737FF094EAC14ADF80040694626
:100590003046FFF72FFF04212846FFF782FF214650
:1005A0003046FFF77EFFF8BD001401400010014007
:1005B00070B5044688B00121112000F00FF94FF406
:1005C0007070ADF8000018208DF80300414E03252F
:1005D0008DF8025069463046FFF70CFF01211820C4
:1005E00000F0FCF8ADF8005010208DF803008DF8F5
:1005F000025069463046FFF7FDFE0C20ADF80000C2
:1006000069463046FFF7F6FE3020ADF80000694637
:100610003046FFF7EFFEA803ADF8000069462E480C
:10062000FFF7E8FE002C52D0142C00D9142401212D
:10063000480300F0D3F840F2CF70ADF81800242042
:10064000B0FBF4F0401EADF814000024234DADF8CB
:100650001A40ADF8164005A9284600F073FB60204B
:10066000ADF804000120ADF80600ADF80A40ADF881
:100670000C4001A9284600F04DFA0821284600F058
:1006800089FA01A9284600F08BFA0821284600F0D3
:10069000C7FA01A9284600F0CDFA0821284600F043
:1006A00007FB01A9284600F009FB0821284600F0B5
:1006B00037FB0121284600F0F3F90121284600F01C
:1006C000FFF90121284600F005FA08B070BD0124A9
:1006D000ADE7000000100140000C01400034014073
:1006E000FEE7000070B5154D041E09DD10212846F7
:1006F000FFF7D5FE20212846FFF7D3FEA1B20BE07D
:100700004FF01001284611DAFFF7CBFE20212846D2
:10071000FFF7C5FE604281B24FF4FA60814200D912
:100720000146BDE87040064800F008BBFFF7B7FE81
:1007300020212846FFF7B3FE0021F2E70010014018
:10074000003401407047000030B50F23C2780178B3
:100750000125F2B1144A126801F1E02102F4E062CD
:10076000C2F5E062120AC2F10404D3404278A2400A
:1007700084781C401443220181F80024007800F0A2
:100780001F018D404009800000F1E020C0F80051B9
:1007900030BD01F01F0085404809800000F1E020D5
:1007A000C0F8805130BD00000CED00E00249084364
:1007B00002490860704700000000FA050CED00E0F7
:1007C00070470000044A0029D16901D0014300E0CC
:1007D0008143D1617047000000100240044A0029A3
:1007E000916901D0014300E08143916170470000AD
:1007F000001002407047000010B54FF4E1618842DC
:1008000000D90846FFF73AFD0749FFF705FD0749FC
:10081000FFF7AAFCFFF737FD81B2BDE810404FF0AB
:10082000804000F087BA00003F358E3F0000FA4359
:1008300010B54FF4E161884200D90846FFF71EFD6C
:100840000749FFF7E9FC0749FFF78EFCFFF71BFD9F
:1008500081B2BDE810404FF0804000F06DBA00005A
:100860003F358E3F0000FA4310B54FF4E1618842F6
:1008700000D90846FFF702FD0649FFF7CDFC0649FF
:10088000FFF772FCFFF7FFFC81B2BDE810400348A0
:1008900000F050BA3F358E3F0000FA430008004098
:1008A00010B54FF4E161884200D90846FFF7E6FC35
:1008B0000649FFF7B1FC0649FFF756FCFFF7E3FCDA
:1008C00081B2BDE81040034800F034BA3F358E3F96
:1008D0000000FA43000400400CB5002226480092B4
:1008E0000192016841F4803101604FF4A063016816
:1008F00001F4003101910099491C0091019911B94D
:1009000000999942F3D10168890333D501210191FE
:100910001A490A6842F010020A600A6822F00302CB
:100920000A600A6842F002020A6041684160416858
:100930004160416841F480614160416821F47C116B
:100940004160416841F4E8114160016841F0807103
:10095000016001688901FCD5416821F00301416013
:10096000416841F0020141604168C1F381010229FF
:10097000FAD10CBD01920CBD0010024000200240D3
:100980004FF0E0210428086903D020F0040008613A
:10099000704740F00400FAE7704700000F4810B5B8
:1009A000016841F00101016041680D4A1140416058
:1009B00001680C4A11400160016821F48021016046
:1009C000416821F4FE0141604FF41F018160FFF78F
:1009D00083FF05494FF00060086010BD0010024021
:1009E0000000FFF8FFFFF6FE08ED00E070B5064CD2
:1009F00005460021204600F0A3F929462046BDE81F
:100A0000704000F05DB800000010004010B5084CC8
:100A10000121204600F069F8002808D0054901208E
:100A2000087001462046BDE8104000F046B810BDF1
:100A300000100040000000201FB5044601211020D6
:100A4000FFF7C0FE4720641EADF80000ADF804407B
:100A50000020124CADF80200ADF8060069462046B1
:100A600000F070F90121204600F024F8012211461F
:100A7000204600F046F80121204600F021F83620FB
:100A80008DF80C0002208DF80D0001208DF80E006D
:100A90008DF80F0003A8FFF757FE1FBD00100040A0
:100AA0000029018802D041F0800101E021F080019D
:100AB00001807047C94301827047C9430182704772
:100AC0000029018802D041F0010101E021F001017B
:100AD00001807047002930F8441F02D041F40041E2
:100AE00001E0C1F30E010180704702460020138A25
:100AF00092890B4202EA010202D0002A00D00120B2
:100B00007047002A828901D00A4300E08A4382812B
:100B10007047000030B5028C22F001020284028C82
:100B20008388048B22F0020224F073050C882C4386
:100B30000D8915434A882A43114DA8420BD0114D07
:100B4000A84208D0104DA84205D0104DA84202D0AE
:100B50000F4DA8420DD122F008054A8923F44073B5
:100B60002A4322F004058A882A438D891D43CB89B4
:100B70002B4383800483C9888186028430BD0000B2
:100B8000002C01400034014000400140004401407D
:100B900000480140028B22F008020A43028370479A
:100BA00070B5028C22F010020284028C8388048BC0
:100BB0000D8824F4E6464FF6FF7404EA0525354314
:100BC0000E8922F0200204EA061616434A8804EA37
:100BD00002123243104EB04202D0104EB04215D134
:100BE00022F080064A8923F4406304EA0212324369
:100BF00022F040068A8804EA021232438E8904EA0F
:100C000086061E43CB8904EA83033343838005832E
:100C1000C9880187028470BD002C01400034014066
:100C2000028B4FF6FF7322F4006203EA01211143A5
:100C30000183704770B5028C22F480720284028CAA
:100C40008388848B0D8824F0730425430E894FF626
:100C5000FF7422F4007204EA062616434A8804EA66
:100C600002223243104EB04202D0104EB04215D193
:100C700022F400664A8923F4405304EA02223243F4
:100C800022F480668A8804EA022232438E8904EACA
:100C900006161E43CB8904EA0313334383808583FE
:100CA000C9888187028470BD002C01400034014056
:100CB000828B22F008020A438283704770B5028C4F
:100CC00022F480520284058C8288838B0C8823F462
:100CD000E6464FF6FF7303EA0424344325F4005636
:100CE0000D8903EA053535434E8803EA06362E435F
:100CF000094DA84202D0094DA84205D122F48045F1
:100D00008A8903EA82122A4382808483C988A0F8F0
:100D10004010068470BD0000002C014000340140EA
:100D2000828B4FF6FF7322F4006203EA0121114324
:100D3000818370478186704701877047818770473C
:100D40008184704730B502881B4C1C4DA0420DD0E9
:100D5000A8420BD0B0F1804F08D0194B984205D073
:100D6000184B984202D0184B984203D122F07003DE
:100D70004A881A43154B984206D0154B984203D027
:100D800022F44073CA881A4302808A8882850A88BE
:100D90000285A0420AD0A84208D00E4A904205D04F
:100DA0000D4A904202D00D4A904201D1097A018643
:100DB0000121818230BD0000002C0140003401403F
:100DC0000004004000080040000C004000100040FB
:100DD0000014004000400140004401400048014030
:100DE000FEE702E008C8121F08C1002AFAD17047C6
:100DF0007047002001E001C1121F002AFBD170479B
:100E000070B54FF4FA76B0FBF6F1CCB2B0FBF6F168
:100E100006FB110504E03046FFF7B1FA641EE4B2A8
:100E2000002CF8D1002D04D02846BDE87040FFF713
:100E3000A6BA70BD4FF4A060FFF7B8FC0A20FFF718
:100E4000B7FBFFF797FA0220FFF73EFB0120FFF701
:100E50003BFBFFF781FB174D4FF48054214628469A
:100E6000FFF71DFB144E04213046FFF718FB6420EA
:100E7000FFF7C6FF21462846FFF713FB0421304643
:100E8000FFF70FFB4FF49670FFF7BAFF42F21070B6
:100E9000FFF7D2FD0120FFF7A9FD04213046FFF73F
:100EA000FEFAFFF74DFAFFF7FEFAFFF78EFAFFF7AB
:100EB0007DFAFEE70010014000140140DC0E00083E
:100EC0000000002004000000E20D0008E00E000811
:100ED0000400002004040000F20D000800000000DF
:0400000508000131BD
:00000001FF
