:020000040800F2
:100000000804002045010008310800082505000803
:10001000DD05000873030008690F000800000000F8
:100020000000000000000000000000007D08000843
:100030007D0300080000000049080008BD0B00080F
:100040005F0100085F0100085F0100085F01000810
:100050005F0100085F0100085F0100085F01000800
:100060005F0100085F0100085F0100085F010008F0
:100070005F0100085F0100085F0100085F010008E0
:100080005F0100085F0100085F0100085F010008D0
:100090005F0100085F0100085F0100085F010008C0
:1000A0005F0100085F0100085F0100085F010008B0
:1000B0005F0100085F0100085F0100085F010008A0
:1000C0005F0100085F0100085F0100085F01000890
:1000D0005F0100085F0100085F0100085F01000880
:1000E0005F0100085F0100085F0100085F01000870
:1000F0005F0100085F0100085F0100085F01000860
:100100005F0100085F0100085F0100085F0100084F
:100110005F0100085F010008110C00085F01000882
:100120005F0100085F0100085F0100085F0100082F
:10013000DFF80CD000F0F2F800480047BD0F0008CF
:10014000080400200648804706480047FEE7FEE70F
:10015000FEE7FEE7FEE7FEE7FEE7FEE7FEE7FEE777
:10016000C10B000831010008F0B480EA0102D40F8D
:100170004200B2EB410F02D20246084611464A0045
:1001800042D0C30DDDB2C1F3C752AD1A202D35DA0E
:10019000C1F3160141F4000204B15242C5F1200638
:1001A00002FA06F12A411044B3EBD05F23D0C4B168
:1001B000012DA0EBC35009DCF0BC4FF0004202EA75
:1001C000C352DBB200F5000000F07AB8400000F145
:1001D000807000EBC350A0F1807040EAD1704900FC
:1001E00009E0490841EAC071A0EBC35000F50000E6
:1001F000400800EBC350F0BC00F059B86142012246
:1002000002EB4101001BF6E7F0BC704781F00041B2
:10021000AAE780F00040A7E780EA010210B502F0EB
:100220000043400022D04A001FD0010E01EB1261B2
:10023000C0F35600C2F3560240F4000042F400023C
:10024000A0FB022000047F39140400D0401C50EAB7
:10025000124001D44000491EC2B20C0604EBD0107B
:10026000401C4008802A02D003E0002010BD20F08E
:100270000100002900DA0020184310BD9623002257
:10028000114600F01DB820F00040C10DC0F316006B
:1002900040F400007F2901DA00207047962903DC32
:1002A000C1F19601C84070479639884070470029CF
:1002B000A8BF7047401C490008BF20F001007047EC
:1002C00010B4B0FA80FC00FA0CF050EA010404BF4C
:1002D00010BC704749B1CCF1200421FA04F411FAA2
:1002E0000CF118BF012121430843A3EB0C01CB1DE6
:1002F0004FEA00614FEA102042BF002010BC704757
:1003000000EBC35010440029A4BF10BC7047401C30
:10031000490008BF20F0010010BC7047064C074D93
:1003200006E0E06840F0010394E8070098471034C5
:10033000AC42F6D3FFF700FFF40F000814100008DA
:1003400010B54FF41674204600F09AFA204600F0DB
:10035000B3FA00F0FDF80028FBD000F005F9002802
:10036000F7D0204600F026FB2046BDE8104000F004
:100370003DBBFEE76FF0040000F014BC704742F292
:10038000283148434FF0E021486100238B61086920
:1003900040F0010008610869C20701D0C003FAD526
:1003A000086920F0010008618B61704770B5002476
:1003B00044F62065002000F089FB284600F0E4FDAB
:1003C000012000F083FB284600F0DEFD641C0A2CAF
:1003D000F0DD022000F07AFB4FF41674204600F0A6
:1003E000E9FA2046BDE8704000F000BB10B50020DF
:1003F00000F046FA002000F05FFA4FF47A742046CD
:1004000000F0EEF8204600F01BF941F2883000F0D1
:10041000BBFD204600F044F9BDE8104044F62060E2
:1004200000F0B2BDF0B5CC78002204F00F03E40672
:1004300001D58C7823430C784FF00F0C14F0FF0F8C
:100440004FF0010E1BD005680E880EFA02F426400C
:10045000A64210D196000CFA06F725EA070703FA20
:1004600006F5CE783D43282E02D0482E02D002E079
:10047000446100E00461521C082AE5D305600A8843
:10048000FF2A1CD94468002202F108060EFA06F57C
:100490000E882E40AE420ED196000CFA06F7BC43F1
:1004A00003FA06F7CE783C43282E00D14561CE787A
:1004B000482E00D10561521C082AE5D34460F0BDE6
:1004C0000246002092680A4200D001207047416134
:1004D00070470161704710B54FF47A7405E020460B
:1004E00000F07EF8204600F0ABF800F049F8002854
:1004F000F5D000F051F80028F1D042F2107000F071
:1005000043FD002000F006FB002000F027FB204602
:1005100000F03AFD022000F0FDFABDE81040022094
:1005200000F01CBBFEE7000041060748826942F06C
:10053000010282610548426822F0E062426042683E
:100540000A43426070470000001002400000014072
:1005500010B501210348FFF7B3FF08B1002010BD1B
:10056000012010BD001C014010B502210348FFF717
:10057000A7FF08B1002010BD012010BD001C0140E4
:1005800010B504210348FFF79BFF08B1002010BD00
:10059000012010BD001C014010B508210348FFF7E1
:1005A0008FFF08B1002010BD012010BD001C0140CC
:1005B00008B50121802000F055F90F20ADF80000AA
:1005C00004208DF8030003208DF8020069460248DC
:1005D000FFF728FF08BD0000001C0140FEE70000F7
:1005E00070B5154D041E09DD02212846FFF76FFF87
:1005F00001212846FFF76DFFA1B20BE04FF0020189
:10060000284611DAFFF765FF01212846FFF75FFF53
:10061000604281B24FF4FA60814200D90146BDE8E0
:100620007040064800F048BCFFF751FF0121284602
:10063000FFF74DFF0021F2E70010014000340140B8
:1006400070B5154D041E09DD08212846FFF73FFF50
:1006500004212846FFF73DFFA1B20BE04FF008014F
:10066000284611DAFFF735FF04212846FFF72FFF50
:10067000604281B24FF4FA60814200D90146BDE880
:100680007040064800F01ABCFFF721FF04212846FD
:10069000FFF71DFF0021F2E7001001400034014088
:1006A00070B5154D041E09DD10212846FFF70FFF18
:1006B00020212846FFF70DFFA1B20BE04FF01001FB
:1006C000284611DAFFF705FF20212846FFF7FFFE35
:1006D000604281B24FF4FA60814200D90146BDE820
:1006E0007040064800F0ECBBFFF7F1FE20212846E1
:1006F000FFF7EDFE0021F2E7001001400034014059
:1007000070B5044688B00121112000F0ABF84FF419
:100710007070ADF8000018208DF80300414E0325DD
:100720008DF8025069463046FFF77CFE0121182003
:1007300000F098F8ADF8005010208DF803008DF807
:10074000025069463046FFF76DFE0C20ADF8000000
:1007500069463046FFF766FE3020ADF80000694676
:100760003046FFF75FFEA803ADF8000069462E484B
:10077000FFF758FE002C52D0142C00D9142401216C
:10078000480300F06FF840F2CF70ADF81800242055
:10079000B0FBF4F0401EADF814000024234DADF87A
:1007A0001A40ADF8164005A9284600F08FFB6020DE
:1007B000ADF804000120ADF80600ADF80A40ADF830
:1007C0000C4001A9284600F067FA0821284600F0ED
:1007D000A3FA01A9284600F0A5FA0821284600F04E
:1007E000E1FA01A9284600F0E7FA0821284600F0BE
:1007F00021FB01A9284600F023FB0821284600F030
:1008000051FB0121284600F019FA0121284600F089
:1008100022FA0121284600F028FA08B070BD012410
:10082000ADE7000000100140000C01400034014021
:100830007047000002490843024908607047000001
:100840000000FA050CED00E070470000044A0029A2
:10085000D16901D0014300E08143D16170470000BC
:1008600000100240044A0029916901D0014300E0D0
:100870008143916170470000001002407047000002
:1008800010B54FF4E161884200D90846FFF7F6FC45
:100890000749FFF7C1FC0749FFF766FCFFF7F3FCC8
:1008A00081B2BDE810404FF0804000F005BB000071
:1008B0003F358E3F0000FA4310B54FF4E1618842A6
:1008C00000D90846FFF7DAFC0749FFF7A5FC0749FE
:1008D000FFF74AFCFFF7D7FC81B2BDE810404FF0AC
:1008E000804000F0EBBA00003F358E3F0000FA4335
:1008F00030B589B001210520FFF7B4FF0F20ADF816
:100900001C0018208DF81F0003208DF81E0007A979
:100910002748FFF787FD01210846FFF797FF47208B
:10092000ADF8100044F61F600024ADF814004FF03D
:100930008045ADF81240ADF8164004A9284600F0F5
:10094000C5FA6021ADF800100120ADF8020040F2B8
:10095000DC50ADF80600ADF808406946284600F0C6
:100960009BF90821284600F0D7F96946284600F08F
:10097000D9F90821284600F015FA6946284600F002
:100980001BFA0821284600F055FA6946284600F06F
:1009900057FA0821284600F085FA0121284600F080
:1009A0004DF90121284600F056F909B030BD00008C
:1009B0000008014010B54FF4E161884200D90846B3
:1009C000FFF75CFC0649FFF727FC0649FFF7CCFB65
:1009D000FFF759FC81B2BDE81040034800F072BA3D
:1009E0003F358E3F0000FA43002C014010B54FF414
:1009F000E161884200D90846FFF740FC0749FFF74C
:100A00000BFC0749FFF7B0FBFFF73DFC81B2BDE8E7
:100A100010404FF0804000F053BA00003F358E3F49
:100A20000000FA430CB500222648009201920168AA
:100A300041F4803101604FF4A063016801F400319A
:100A400001910099491C0091019911B900999942AD
:100A5000F3D10168890333D5012101911A490A684C
:100A600042F010020A600A6822F003020A600A6873
:100A700042F002020A604168416041684160416899
:100A800041F480614160416821F47C11416041681A
:100A900041F4E8114160016841F080710160016832
:100AA0008901FCD5416821F003014160416841F0B2
:100AB000020141604168C1F381010229FAD10CBDF4
:100AC00001920CBD001002400020024070B50F4A98
:100AD0000F4D4FF47A7468B1012810D0022814D158
:100AE00004211046FFF7F5FC00212846BDE87040C0
:100AF00000F0E6B904211046FFF7EBFC03E0042107
:100B00001046FFF7E4FC2146EFE770BD00140140FA
:100B10000008004070B50F4A0F4D4FF47A7468B169
:100B2000012810D0022814D101211046FFF7D1FC72
:100B300000212846BDE8704000F0BEB901211046F2
:100B4000FFF7C7FC03E001211046FFF7C0FC214678
:100B5000EFE770BD001401400008004070B50F4A77
:100B60000F4D4FF47A7468B1012810D0022814D1C7
:100B700002211046FFF7ADFC00212846BDE8704079
:100B800000F09CB902211046FFF7A3FC03E002210C
:100B90001046FFF79CFC2146EFE770BD00140140B2
:100BA000000800404FF0E0210428086903D020F03D
:100BB00004000861704740F00400FAE77047000045
:100BC0000F4810B5016841F00101016041680D4A0C
:100BD0001140416001680C4A11400160016821F434
:100BE00080210160416821F4FE0141604FF41F0142
:100BF0008160FFF717FF05494FF00060086010BDE6
:100C0000001002400000FFF8FFFFF6FE08ED00E0D4
:100C100010B5084C0121204600F032F8002808D019
:100C200005490120087001462046BDE8104000F04B
:100C30000FB810BD001000400000002000290188FE
:100C400002D041F0800101E021F080010180704775
:100C5000C943018270470029018802D041F0010197
:100C600001E021F0010101807047002930F8441FA4
:100C700002D041F4004101E0C1F30E010180704750
:100C800002460020138A92890B4202EA010202D036
:100C9000002A00D00120704730B5028C22F00102FA
:100CA0000284028C8388048B22F0020224F07305F4
:100CB0000C882C430D8915434A882A43114DA842BC
:100CC0000BD0114DA84208D0104DA84205D0104DB0
:100CD000A84202D00F4DA8420DD122F008054A8942
:100CE00023F440732A4322F004058A882A438D891D
:100CF0001D43CB892B4383800483C988818602846A
:100D000030BD0000002C0140003401400040014093
:100D10000044014000480140028B22F008020A43CF
:100D20000283704770B5028C22F010020284028C9C
:100D30008388048B0D8824F4E6464FF6FF7404EA9A
:100D4000052535430E8922F0200204EA06161643D3
:100D50004A8804EA02123243104EB04202D0104ECA
:100D6000B04215D122F080064A8923F4406304EA98
:100D70000212324322F040068A8804EA0212324309
:100D80008E8904EA86061E43CB8904EA8303334333
:100D900083800583C9880187028470BD002C0140CF
:100DA00000340140028B4FF6FF7322F4006203EA25
:100DB000012111430183704770B5028C22F48072C7
:100DC0000284028C8388848B0D8824F0730425436D
:100DD0000E894FF6FF7422F4007204EA06261643C9
:100DE0004A8804EA02223243104EB04202D0104E2A
:100DF000B04215D122F400664A8923F4405304EA34
:100E00000222324322F480668A8804EA02223243B4
:100E10008E8904EA06161E43CB8904EA0313334382
:100E200083808583C9888187028470BD002C01403E
:100E300000340140828B22F008020A43828370470B
:100E400070B5028C22F480520284058C8288838BD8
:100E50000C8823F4E6464FF6FF7303EA0424344378
:100E600025F400560D8903EA053535434E8803EA1B
:100E700006362E43094DA84202D0094DA84205D19D
:100E800022F480458A8903EA82122A43828084837D
:100E9000C988A0F84010068470BD0000002C0140F5
:100EA00000340140828B4FF6FF7322F4006203EAA4
:100EB0000121114381837047818670470187704704
:100EC00081877047A0F840107047000030B5028855
:100ED0001B4C1C4DA0420DD0A8420BD0B0F1804F4E
:100EE00008D0194B984205D0184B984202D0184BA5
:100EF000984203D122F070034A881A43154B984256
:100F000006D0154B984203D022F44073CA881A4386
:100F100002808A8882850A880285A0420AD0A84277
:100F200008D00E4A904205D00D4A904202D00D4A98
:100F3000904201D1097A01860121818230BD0000F1
:100F4000002C014000340140000400400008004033
:100F5000000C004000100040001400400040014020
:100F60000044014000480140FEE702E008C8121FAB
:100F700008C1002AFAD170477047002001E001C182
:100F8000121F002AFBD1704770B54FF4FA76B0FB00
:100F9000F6F1CCB2B0FBF6F106FB110504E03046E9
:100FA000FFF7EDF9641EE4B2002CF8D1002D04D057
:100FB0002846BDE87040FFF7E2B970BD4FF4A0606D
:100FC000FFF738FC0220FFF7AFFA0120FFF7ACFA79
:100FD000FFF7EEFA0A20FFF793FBFFF7CBF9FFF7D5
:100FE00087FCFFF7ADF9FFF776FAFFF7FFF9FFF798
:100FF000DDF9FEE7141000080000002004000000E6
:101000006A0F000818100008040000200404000003
:081010007A0F00080000000047
:0400000508000131BD
:00000001FF
