:020000040800F2
:100000000804002045010008990800088F05000831
:100010004506000885030008D11000080000000014
:10002000000000000000000000000000E5080008DB
:100030008F03000800000000B1080008250D00082B
:100040005F0100085F0100085F0100085F01000810
:100050005F0100085F0100085F0100085F01000800
:100060005F0100085F0100085F0100085F010008F0
:100070005F0100085F0100085F0100085F010008E0
:100080005F0100085F0100085F0100085F010008D0
:100090005F0100085F0100085F0100085F010008C0
:1000A0005F0100085F0100085F0100085F010008B0
:1000B0005F0100085F0100085F0100085F010008A0
:1000C0005F0100085F0100085F0100085F01000890
:1000D0005F0100085F0100085F0100085F01000880
:1000E0005F0100085F0100085F0100085F01000870
:1000F0005F0100085F0100085F0100085F01000860
:100100005F0100085F0100085F0100085F0100084F
:100110005F0100085F010008790D00085F01000819
:100120005F0100085F0100085F0100085F0100082F
:10013000DFF80CD000F0F2F8004800472511000865
:10014000080400200648804706480047FEE7FEE70F
:10015000FEE7FEE7FEE7FEE7FEE7FEE7FEE7FEE777
:10016000290D000831010008F0B480EA0102D40F23
:100170004200B2EB410F02D20246084611464A0045
:1001800042D0C30DDDB2C1F3C752AD1A202D35DA0E
:10019000C1F3160141F4000204B15242C5F1200638
:1001A00002FA06F12A411044B3EBD05F23D0C4B168
:1001B000012DA0EBC35009DCF0BC4FF0004202EA75
:1001C000C352DBB200F5000000F07AB8400000F145
:1001D000807000EBC350A0F1807040EAD1704900FC
:1001E00009E0490841EAC071A0EBC35000F50000E6
:1001F000400800EBC350F0BC00F059B86142012246
:1002000002EB4101001BF6E7F0BC704781F00041B2
:10021000AAE780F00040A7E780EA010210B502F0EB
:100220000043400022D04A001FD0010E01EB1261B2
:10023000C0F35600C2F3560240F4000042F400023C
:10024000A0FB022000047F39140400D0401C50EAB7
:10025000124001D44000491EC2B20C0604EBD0107B
:10026000401C4008802A02D003E0002010BD20F08E
:100270000100002900DA0020184310BD9623002257
:10028000114600F01DB820F00040C10DC0F316006B
:1002900040F400007F2901DA00207047962903DC32
:1002A000C1F19601C84070479639884070470029CF
:1002B000A8BF7047401C490008BF20F001007047EC
:1002C00010B4B0FA80FC00FA0CF050EA010404BF4C
:1002D00010BC704749B1CCF1200421FA04F411FAA2
:1002E0000CF118BF012121430843A3EB0C01CB1DE6
:1002F0004FEA00614FEA102042BF002010BC704757
:1003000000EBC35010440029A4BF10BC7047401C30
:10031000490008BF20F0010010BC7047064C074D93
:1003200006E0E06840F0010394E8070098471034C5
:10033000AC42F6D3FFF700FF6411000884110008F7
:1003400010B54FF47A74204600F0CEFA204600F043
:10035000E7FA644205E0204600F076F9204600F016
:10036000A3F900F029F918B900F032F90028F2D009
:100370004FF41674204600F051FB2046BDE81040B3
:1003800000F068BBFEE76FF0040000F0BFBC7047F0
:1003900042F2283148434FF0E021486100238B614D
:1003A000086940F0010008610869C20701D0C00374
:1003B000FAD5086920F0010008618B61704770B5BB
:1003C000002444F62065002000F0B4FB284600F02D
:1003D0008FFE012000F0AEFB284600F089FE641C71
:1003E0000A2CF0DD022000F0A5FB4FF41674204625
:1003F00000F014FB2046BDE8704000F02BBB10B5A8
:10040000002000F071FA002000F08AFA4FF47A74AC
:10041000204600F019F9204600F046F941F28830F4
:1004200000F066FE204600F06FF9BDE8104044F68B
:10043000206000F05DBEF0B5CC78002204F00F0320
:10044000E40601D58C7823430C784FF00F0C14F0A0
:10045000FF0F4FF0010E1BD005680E880EFA02F454
:100460002640A64210D196000CFA06F725EA0707A7
:1004700003FA06F5CE783D43282E02D0482E02D04E
:1004800002E0446100E00461521C082AE5D30560E3
:100490000A88FF2A1CD94468002202F108060EFAD5
:1004A00006F50E882E40AE420ED196000CFA06F7E5
:1004B000BC4303FA06F7CE783C43282E00D14561B1
:1004C000CE78482E00D10561521C082AE5D344603D
:1004D000F0BD0000F0B5144C002801DAE36900E03B
:1004E0006368450D2E0185B2C0F30157B540C0F3D6
:1004F0000342032F05D0C6020AD503269640B34314
:1005000007E023F07062636823F07063636002E0C9
:10051000AB4343F0706201B12A43002801DAE26183
:10052000F0BD6260F0BD0000000001400246002006
:1005300092680A4200D00120704741617047016112
:10054000704710B54FF47A7405E0204600F07CF84F
:10055000204600F0A9F800F047F818B900F050F86C
:100560000028F2D042F2107000F0C2FD002000F02E
:1005700005FB002000F026FB204600F0B9FD02201C
:1005800000F0FCFABDE81040022000F01BBBFEE7C3
:1005900041060748826942F00102826105484268CB
:1005A00022F0E062426042680A4342607047000005
:1005B000001002400000014010B501210348FFF780
:1005C000B5FF08B1002010BD012010BD001C014086
:1005D00010B502210348FFF7A9FF08B1002010BDA4
:1005E000012010BD001C014010B504210348FFF795
:1005F0009DFF08B1002010BD012010BD001C01406E
:1006000010B508210348FFF791FF08B1002010BD85
:10061000012010BD001C014008B50121802000F020
:1006200055F90F20ADF8000048208DF80300032095
:100630008DF8020069460248FFF7FDFE08BD000084
:10064000001C0140FEE7000070B5154D041E09DDD9
:1006500002212846FFF771FF01212846FFF76FFFAF
:10066000A1B20BE04FF00201284611DAFFF767FF55
:1006700001212846FFF761FF604281B24FF4FA6022
:10068000814200D90146BDE87040064800F0C8BC70
:10069000FFF753FF01212846FFF74FFF0021F2E744
:1006A000001001400034014070B5154D041E09DDF5
:1006B00008212846FFF741FF04212846FFF73FFFA6
:1006C000A1B20BE04FF00801284611DAFFF737FF1F
:1006D00004212846FFF731FF604281B24FF4FA60EF
:1006E000814200D90146BDE87040064800F09ABC3E
:1006F000FFF723FF04212846FFF71FFF0021F2E741
:10070000001001400034014070B5154D041E09DD94
:1007100010212846FFF711FF20212846FFF70FFF81
:10072000A1B20BE04FF01001284611DAFFF707FFE6
:1007300020212846FFF701FF604281B24FF4FA60A2
:10074000814200D90146BDE87040064800F06CBC0B
:10075000FFF7F3FE20212846FFF7EFFE0021F2E726
:10076000001001400034014070B5044688B00121FA
:10077000112000F0ABF84FF47070ADF800001820B5
:100780008DF80300414E03258DF80250694630462E
:10079000FFF751FE0121182000F098F8ADF8005045
:1007A00010208DF803008DF8025069463046FFF79F
:1007B00042FE0C20ADF8000069463046FFF73BFED4
:1007C0003020ADF8000069463046FFF734FEA8033C
:1007D000ADF8000069462E48FFF72DFE002C52D0E0
:1007E000142C00D914240121480300F06FF840F2C2
:1007F000CF70ADF818002420B0FBF4F0401EADF827
:1008000014000024234DADF81A40ADF8164005A998
:10081000284600F00FFC6020ADF804000120ADF880
:100820000600ADF80A40ADF80C4001A9284600F0DA
:10083000E7FA0821284600F023FB01A9284600F02A
:1008400025FB0821284600F061FB01A9284600F09D
:1008500067FB0821284600F0A1FB01A9284600F00B
:10086000A3FB0821284600F0D1FB0121284600F017
:1008700099FA0121284600F0A2FA0121284600F049
:10088000A8FA08B070BD0124ADE7000000100140D7
:10089000000C014000340140704700000249084349
:1008A00002490860704700000000FA050CED00E006
:1008B00070470000044A0029D16901D0014300E0DB
:1008C0008143D1617047000000100240044A0029B2
:1008D000916901D0014300E08143916170470000BC
:1008E000001002407047000010B54FF4E1618842EB
:1008F00000D90846FFF7C2FC0749FFF78DFC0749FE
:10090000FFF732FCFFF7BFFC81B2BDE810404FF0AB
:10091000804000F085BB00003F358E3F0000FA4369
:1009200010B54FF4E161884200D90846FFF7A6FCF4
:100930000749FFF771FC0749FFF716FCFFF7A3FC17
:1009400081B2BDE810404FF0804000F06BBB00006A
:100950003F358E3F0000FA4330B589B001210520B4
:10096000FFF7B4FF0F20ADF81C0018208DF81F0012
:1009700003208DF81E0007A92748FFF75CFD012121
:100980000846FFF797FF4720ADF8100044F61F60B8
:100990000024ADF814004FF08045ADF81240ADF8DA
:1009A000164004A9284600F045FB6021ADF8001070
:1009B0000120ADF8020040F2DC50ADF80600ADF8C1
:1009C00008406946284600F01BFA0821284600F036
:1009D00057FA6946284600F059FA0821284600F0DF
:1009E00095FA6946284600F09BFA0821284600F04F
:1009F000D5FA6946284600F0D7FA0821284600F0C3
:100A000005FB0121284600F0CDF90121284600F020
:100A1000D6F909B030BD00000008014010B54FF410
:100A2000E161884200D90846FFF728FC0749FFF733
:100A3000F3FB0749FFF798FBFFF725FC81B2BDE800
:100A400010404FF0804000F0F1BA00003F358E3F7B
:100A50000000FA4310B54FF4E161884200D908461E
:100A6000FFF70CFC0749FFF7D7FB0749FFF77CFBB3
:100A7000FFF709FC81B2BDE810404FF0804000F064
:100A8000D3BA00003F358E3F0000FA430CB5002278
:100A9000264800920192016841F4803101604FF4D0
:100AA000A063016801F4003101910099491C009193
:100AB000019911B900999942F3D10168890333D59D
:100AC000012101911A490A6842F010020A600A687D
:100AD00022F003020A600A6842F002020A604168DA
:100AE000416041684160416841F480614160416812
:100AF00021F47C114160416841F4E81141600168D2
:100B000041F08071016001688901FCD5416821F0E4
:100B100003014160416841F0020141604168C1F355
:100B200081010229FAD10CBD01920CBD00100240D6
:100B30000020024070B50F4A0F4D4FF47A7468B12F
:100B4000012810D0022814D104211046FFF7F7FC29
:100B500000212846BDE8704000F066BA0421104626
:100B6000FFF7EDFC03E004211046FFF7E6FC214609
:100B7000EFE770BD001401400004004070B50F4A5B
:100B80000F4D4FF47A7468B1012810D0022814D1A7
:100B900001211046FFF7D3FC00212846BDE8704034
:100BA00000F03EBA01211046FFF7C9FC03E0012125
:100BB0001046FFF7C2FC2146EFE770BD001401406C
:100BC0000004004070B50F4A0F4D4FF47A7468B1BD
:100BD000012810D0022814D102211046FFF7AFFCE3
:100BE00000212846BDE8704000F01CBA02211046E2
:100BF000FFF7A5FC03E002211046FFF79EFC21460B
:100C0000EFE770BD001401400004004030B5044619
:100C100089B001210220FFF74DFE01210920FFF7D5
:100C200055FE01213548FFF755FC3320ADF8100083
:100C300018208DF8130003258DF8125004A93048B0
:100C4000FFF7F9FB01212020FFF740FE0F20ADF850
:100C5000100010208DF813008DF8125004A92948B7
:100C6000FFF7E9FBF4B3142C00D9142440F2CF7041
:100C7000ADF818002420B0FBF4F0401EADF81400CD
:100C80000024214DADF81A40ADF8164005A92846BC
:100C900000F0D0F96020ADF800000120ADF80200AE
:100CA000ADF80640ADF808406946284600F0A8F8BF
:100CB0000821284600F0E4F86946284600F0E6F8E6
:100CC0000821284600F022F96946284600F028F954
:100CD0000821284600F062F96946284600F064F9C8
:100CE000082100E008E0284600F090F9012128469C
:100CF00000F065F809B030BD0124B7E700081A001C
:100D0000000C014000140140000400404FF0E021BD
:100D10000428086903D020F004000861704740F0FF
:100D20000400FAE7704700000F4810B5016841F071
:100D30000101016041680D4A1140416001680C4A9F
:100D400011400160016821F480210160416821F4B3
:100D5000FE0141604FF41F018160FFF797FE0549D6
:100D60004FF00060086010BD001002400000FFF866
:100D7000FFFFF6FE08ED00E010B5084C012120460B
:100D800000F032F8002808D005490120087001461B
:100D90002046BDE8104000F00FB810BD0010004024
:100DA000000000200029018802D041F0800101E00C
:100DB00021F0800101807047C943018270470029FA
:100DC000018802D041F0010101E021F00101018020
:100DD0007047002930F8441F02D041F4004101E07F
:100DE000C1F30E010180704702460020138A9289E8
:100DF0000B4202EA010202D0002A00D00120704713
:100E000030B5028C22F001020284028C8388048BAC
:100E100022F0020224F073050C882C430D8915433F
:100E20004A882A43114DA8420BD0114DA84208D040
:100E3000104DA84205D0104DA84202D00F4DA84237
:100E40000DD122F008054A8923F440732A4322F089
:100E500004058A882A438D891D43CB892B438380CF
:100E60000483C9888186028430BD0000002C0140C3
:100E7000003401400040014000440140004801406E
:100E8000028B22F008020A430283704770B5028C7D
:100E900022F010020284028C8388048B0D8824F4D3
:100EA000E6464FF6FF7404EA052535430E8922F025
:100EB000200204EA061616434A8804EA0212324364
:100EC000104EB04202D0104EB04215D122F0800632
:100ED0004A8923F4406304EA0212324322F04006B6
:100EE0008A8804EA021232438E8904EA86061E4387
:100EF000CB8904EA8303334383800583C988018750
:100F0000028470BD002C014000340140028B4FF67A
:100F1000FF7322F4006203EA012111430183704749
:100F200070B5028C22F480720284028C8388848BD8
:100F30000D8824F0730425430E894FF6FF7422F4C4
:100F4000007204EA062616434A8804EA0222324363
:100F5000104EB04202D0104EB04215D122F40066BD
:100F60004A8923F4405304EA0222324322F4806681
:100F70008A8804EA022232438E8904EA06161E4356
:100F8000CB8904EA0313334383808583C98881872F
:100F9000028470BD002C014000340140828B22F09D
:100FA00008020A438283704770B5028C22F4805293
:100FB0000284058C8288838B0C8823F4E6464FF6E6
:100FC000FF7303EA0424344325F400560D8903EA31
:100FD000053535434E8803EA06362E43094DA842AF
:100FE00002D0094DA84205D122F480458A8903EA3E
:100FF00082122A4382808483C988A0F84010068424
:1010000070BD0000002C014000340140828B4FF67F
:10101000FF7322F4006203EA0121114381837047C8
:10102000818670470187704781877047A0F840101C
:101030007047000030B502881B4C1C4DA0420DD0FB
:10104000A8420BD0B0F1804F08D0194B984205D080
:10105000184B984202D0184B984203D122F07003EB
:101060004A881A43154B984206D0154B984203D034
:1010700022F44073CA881A4302808A8882850A88CB
:101080000285A0420AD0A84208D00E4A904205D05C
:101090000D4A904202D00D4A904201D1097A018650
:1010A0000121818230BD0000002C0140003401404C
:1010B0000004004000080040000C00400010004008
:1010C000001400400040014000440140004801403D
:1010D000FEE702E008C8121F08C1002AFAD17047D3
:1010E0007047002001E001C1121F002AFBD17047A8
:1010F00070B54FF4FA76B0FBF6F1CCB2B0FBF6F176
:1011000006FB110504E03046FFF742F9641EE4B225
:10111000002CF8D1002D04D02846BDE87040FFF720
:1011200037B970BD4FF4A060FFF7B8FB0220FFF79E
:101130002FFA0120FFF72CFAFFF76EFA0A20FFF7CB
:1011400013FB0A20FFF762FDFFF71DF9FFF704FC10
:10115000FFF7F6F8FFF7F5F9FFF751F9FFF72FF969
:10116000FEE70000841100080000002004000000D9
:10117000D2100008881100080400002004040000B8
:08118000E2100008000000006D
:0400000508000131BD
:00000001FF
